{
  "_format": "hh-sol-artifact-1",
  "contractName": "Presale",
  "sourceName": "contracts/Presale.sol",
  "abi": [
    {
      "inputs": [
        {
          "internalType": "uint256",
          "name": "_rate",
          "type": "uint256"
        },
        {
          "internalType": "contract BEP20",
          "name": "_token",
          "type": "address"
        },
        {
          "internalType": "address",
          "name": "_addressToken",
          "type": "address"
        }
      ],
      "stateMutability": "nonpayable",
      "type": "constructor"
    },
    {
      "anonymous": false,
      "inputs": [
        {
          "indexed": true,
          "internalType": "address",
          "name": "previousOwner",
          "type": "address"
        },
        {
          "indexed": true,
          "internalType": "address",
          "name": "newOwner",
          "type": "address"
        }
      ],
      "name": "OwnershipTransferred",
      "type": "event"
    },
    {
      "anonymous": false,
      "inputs": [
        {
          "indexed": true,
          "internalType": "address",
          "name": "purchaser",
          "type": "address"
        },
        {
          "indexed": true,
          "internalType": "address",
          "name": "beneficiary",
          "type": "address"
        },
        {
          "indexed": false,
          "internalType": "uint256",
          "name": "value",
          "type": "uint256"
        },
        {
          "indexed": false,
          "internalType": "uint256",
          "name": "amount",
          "type": "uint256"
        }
      ],
      "name": "TokenPurchase",
      "type": "event"
    },
    {
      "stateMutability": "payable",
      "type": "fallback"
    },
    {
      "inputs": [],
      "name": "TokenBalance",
      "outputs": [
        {
          "internalType": "uint256",
          "name": "",
          "type": "uint256"
        }
      ],
      "stateMutability": "view",
      "type": "function"
    },
    {
      "inputs": [
        {
          "internalType": "address",
          "name": "_beneficiary",
          "type": "address"
        }
      ],
      "name": "buyTokens",
      "outputs": [],
      "stateMutability": "payable",
      "type": "function"
    },
    {
      "inputs": [],
      "name": "endSold",
      "outputs": [],
      "stateMutability": "nonpayable",
      "type": "function"
    },
    {
      "inputs": [],
      "name": "getBalancePandoras",
      "outputs": [
        {
          "internalType": "uint256",
          "name": "",
          "type": "uint256"
        }
      ],
      "stateMutability": "view",
      "type": "function"
    },
    {
      "inputs": [],
      "name": "isOwner",
      "outputs": [
        {
          "internalType": "bool",
          "name": "",
          "type": "bool"
        }
      ],
      "stateMutability": "view",
      "type": "function"
    },
    {
      "inputs": [],
      "name": "limitBuy",
      "outputs": [
        {
          "internalType": "uint256",
          "name": "",
          "type": "uint256"
        }
      ],
      "stateMutability": "view",
      "type": "function"
    },
    {
      "inputs": [],
      "name": "maxRate",
      "outputs": [
        {
          "internalType": "uint256",
          "name": "",
          "type": "uint256"
        }
      ],
      "stateMutability": "view",
      "type": "function"
    },
    {
      "inputs": [],
      "name": "minRate",
      "outputs": [
        {
          "internalType": "uint256",
          "name": "",
          "type": "uint256"
        }
      ],
      "stateMutability": "view",
      "type": "function"
    },
    {
      "inputs": [],
      "name": "owner",
      "outputs": [
        {
          "internalType": "address",
          "name": "",
          "type": "address"
        }
      ],
      "stateMutability": "view",
      "type": "function"
    },
    {
      "inputs": [],
      "name": "rate",
      "outputs": [
        {
          "internalType": "uint256",
          "name": "",
          "type": "uint256"
        }
      ],
      "stateMutability": "view",
      "type": "function"
    },
    {
      "inputs": [],
      "name": "renounceOwnership",
      "outputs": [],
      "stateMutability": "nonpayable",
      "type": "function"
    },
    {
      "inputs": [
        {
          "internalType": "uint256",
          "name": "_newLimitminRate",
          "type": "uint256"
        },
        {
          "internalType": "uint256",
          "name": "_newLimitmaxRate",
          "type": "uint256"
        }
      ],
      "name": "setLimirates",
      "outputs": [],
      "stateMutability": "nonpayable",
      "type": "function"
    },
    {
      "inputs": [
        {
          "internalType": "uint256",
          "name": "_newLimit",
          "type": "uint256"
        }
      ],
      "name": "setLimitBuy",
      "outputs": [],
      "stateMutability": "nonpayable",
      "type": "function"
    },
    {
      "inputs": [
        {
          "internalType": "uint256",
          "name": "_newrate",
          "type": "uint256"
        }
      ],
      "name": "setRate",
      "outputs": [],
      "stateMutability": "nonpayable",
      "type": "function"
    },
    {
      "inputs": [],
      "name": "token",
      "outputs": [
        {
          "internalType": "contract BEP20",
          "name": "",
          "type": "address"
        }
      ],
      "stateMutability": "view",
      "type": "function"
    },
    {
      "inputs": [
        {
          "internalType": "address",
          "name": "newOwner",
          "type": "address"
        }
      ],
      "name": "transferOwnership",
      "outputs": [],
      "stateMutability": "nonpayable",
      "type": "function"
    },
    {
      "inputs": [],
      "name": "wallet",
      "outputs": [
        {
          "internalType": "address payable",
          "name": "",
          "type": "address"
        }
      ],
      "stateMutability": "view",
      "type": "function"
    },
    {
      "inputs": [],
      "name": "weiRaised",
      "outputs": [
        {
          "internalType": "uint256",
          "name": "",
          "type": "uint256"
        }
      ],
      "stateMutability": "view",
      "type": "function"
    },
    {
      "stateMutability": "payable",
      "type": "receive"
    }
  ],
  "bytecode": "0x6080604052678ac7230489e80000600555614e2060065561753060075534801561002857600080fd5b50604051610f08380380610f088339818101604052606081101561004b57600080fd5b50805160208201516040909201519091908233838261006957600080fd5b6001600160a01b03821661007c57600080fd5b600292909255600180546001600160a01b039283166001600160a01b031991821617909155600080549290931691161781556100b661017b565b600480546001600160a01b0319166001600160a01b038316908117909155604051919250906000907f8be0079c531659141344cd1fd0a4f28419497f9722a3daafe3b4186f6b6457e0908290a350600654831015801561011857506007548311155b6101535760405162461bcd60e51b8152600401808060200182810382526039815260200180610ecf6039913960400191505060405180910390fd5b600880546001600160a01b0319166001600160a01b03929092169190911790555061017f9050565b3390565b610d418061018e6000396000f3fe60806040526004361061010d5760003560e01c8063715018a611610095578063b7a06e4f11610064578063b7a06e4f146102be578063ec8ac4d8146102d3578063ece1d6e5146102f9578063f2fde38b1461030e578063fc0c546a146103415761011d565b8063715018a6146102565780638da5cb5b1461026b5780638f32d59b14610280578063a9bfe5c7146102a95761011d565b806334fcf437116100dc57806334fcf4371461018c5780633cbd09a5146101b65780634042b66f146101e6578063435f5310146101fb578063521eb273146102255761011d565b806308e6f8dc14610126578063092e469f1461013b5780630cb60443146101625780632c4e722e146101775761011d565b3661011d5761011b33610356565b005b61011b33610356565b34801561013257600080fd5b5061011b610500565b34801561014757600080fd5b5061015061068f565b60408051918252519081900360200190f35b34801561016e57600080fd5b50610150610695565b34801561018357600080fd5b5061015061069b565b34801561019857600080fd5b5061011b600480360360208110156101af57600080fd5b50356106a1565b3480156101c257600080fd5b5061011b600480360360408110156101d957600080fd5b508035906020013561073c565b3480156101f257600080fd5b5061015061078e565b34801561020757600080fd5b5061011b6004803603602081101561021e57600080fd5b5035610794565b34801561023157600080fd5b5061023a6107e0565b604080516001600160a01b039092168252519081900360200190f35b34801561026257600080fd5b5061011b6107ef565b34801561027757600080fd5b5061023a610880565b34801561028c57600080fd5b5061029561088f565b604080519115158252519081900360200190f35b3480156102b557600080fd5b506101506108b5565b3480156102ca57600080fd5b50610150610931565b61011b600480360360208110156102e957600080fd5b50356001600160a01b0316610356565b34801561030557600080fd5b5061015061097c565b34801561031a57600080fd5b5061011b6004803603602081101561033157600080fd5b50356001600160a01b0316610982565b34801561034d57600080fd5b5061023a6109d5565b600854604080516370a0823160e01b81526001600160a01b0384811660048301529151349360009316916370a08231916024808301926020929190829003018186803b1580156103a557600080fd5b505afa1580156103b9573d6000803e3d6000fd5b505050506040513d60208110156103cf57600080fd5b50516005549091508211156104155760405162461bcd60e51b815260040180806020018281038252602a815260200180610c9b602a913960400191505060405180910390fd5b600254600554610424916109e4565b61044361043c600254856109e490919063ffffffff16565b8390610a46565b11156104805760405162461bcd60e51b8152600401808060200182810382526023815260200180610c376023913960400191505060405180910390fd5b61048a8383610aa0565b600061049583610ac1565b6003549091506104a59084610a46565b6003556104b28482610ad8565b604080518481526020810183905281516001600160a01b0387169233927f623b3804fa71d67900d064613da8f94b9617215ee90799290593e1745087ad18929081900390910190a350505050565b61050861088f565b610547576040805162461bcd60e51b81526020600482018190526024820152600080516020610c7b833981519152604482015290519081900360640190fd5b6008546001600160a01b031663a9059cbb610560610880565b600854604080516370a0823160e01b815230600482015290516001600160a01b03909216916370a0823191602480820192602092909190829003018186803b1580156105ab57600080fd5b505afa1580156105bf573d6000803e3d6000fd5b505050506040513d60208110156105d557600080fd5b5051604080516001600160e01b031960e086901b1681526001600160a01b03909316600484015260248301919091525160448083019260209291908290030181600087803b15801561062657600080fd5b505af115801561063a573d6000803e3d6000fd5b505050506040513d602081101561065057600080fd5b505161065b57600080fd5b60405133904780156108fc02916000818181858888f19350505050158015610687573d6000803e3d6000fd5b506000600355565b60055481565b60065481565b60025481565b6106a961088f565b6106e8576040805162461bcd60e51b81526020600482018190526024820152600080516020610c7b833981519152604482015290519081900360640190fd5b60065481101580156106fc57506007548111155b6107375760405162461bcd60e51b8152600401808060200182810382526047815260200180610cc56047913960600191505060405180910390fd5b600255565b61074461088f565b610783576040805162461bcd60e51b81526020600482018190526024820152600080516020610c7b833981519152604482015290519081900360640190fd5b600691909155600755565b60035481565b61079c61088f565b6107db576040805162461bcd60e51b81526020600482018190526024820152600080516020610c7b833981519152604482015290519081900360640190fd5b600555565b6001546001600160a01b031681565b6107f761088f565b610836576040805162461bcd60e51b81526020600482018190526024820152600080516020610c7b833981519152604482015290519081900360640190fd5b6004546040516000916001600160a01b0316907f8be0079c531659141344cd1fd0a4f28419497f9722a3daafe3b4186f6b6457e0908390a3600480546001600160a01b0319169055565b6004546001600160a01b031690565b6004546000906001600160a01b03166108a6610ae2565b6001600160a01b031614905090565b600854604080516370a0823160e01b815230600482015290516000926001600160a01b0316916370a08231916024808301926020929190829003018186803b15801561090057600080fd5b505afa158015610914573d6000803e3d6000fd5b505050506040513d602081101561092a57600080fd5b5051905090565b600854604080516370a0823160e01b815233600482015290516000926001600160a01b0316916370a08231916024808301926020929190829003018186803b15801561090057600080fd5b60075481565b61098a61088f565b6109c9576040805162461bcd60e51b81526020600482018190526024820152600080516020610c7b833981519152604482015290519081900360640190fd5b6109d281610ae6565b50565b6000546001600160a01b031681565b6000826109f357506000610a40565b82820282848281610a0057fe5b0414610a3d5760405162461bcd60e51b8152600401808060200182810382526021815260200180610c5a6021913960400191505060405180910390fd5b90505b92915050565b600082820183811015610a3d576040805162461bcd60e51b815260206004820152601b60248201527f536166654d6174683a206164646974696f6e206f766572666c6f770000000000604482015290519081900360640190fd5b6001600160a01b038216610ab357600080fd5b80610abd57600080fd5b5050565b6000610a40600254836109e490919063ffffffff16565b610abd8282610b87565b3390565b6001600160a01b038116610b2b5760405162461bcd60e51b8152600401808060200182810382526026815260200180610c116026913960400191505060405180910390fd5b6004546040516001600160a01b038084169216907f8be0079c531659141344cd1fd0a4f28419497f9722a3daafe3b4186f6b6457e090600090a3600480546001600160a01b0319166001600160a01b0392909216919091179055565b600080546040805163a9059cbb60e01b81526001600160a01b038681166004830152602482018690529151919092169263a9059cbb92604480820193602093909283900390910190829087803b158015610be057600080fd5b505af1158015610bf4573d6000803e3d6000fd5b505050506040513d6020811015610c0a57600080fd5b5050505056fe4f776e61626c653a206e6577206f776e657220697320746865207a65726f206164647265737345786365646520636f6d7072612064652050616e646f726173207065726d6974696461536166654d6174683a206d756c7469706c69636174696f6e206f766572666c6f774f776e61626c653a2063616c6c6572206973206e6f7420746865206f776e6572436f6d7072612065786365646520656c206dc3a178696d6f20646520424e4273207065726d697469646f4c612063616e746964616420646520746f6b656e73207469656e65207175652065737461722064656e74726f206465206c6f73206cc3ad6d69746573207065726d697469646f73a2646970667358221220105ce7c0e1f35a13beffd8c60ce0efd244f0a570563925cfd13df524f5b148b064736f6c634300060c00334c612063616e746964616420646520746f6b656e73207469656e652071756520657374617220656e7472652032303030302079203330303030",
  "linkReferences": {},
  "deployedLinkReferences": {}
}